{
  "contractName": "DataDen",
  "abi": [
    {
      "anonymous": false,
      "inputs": [
        {
          "indexed": false,
          "internalType": "string",
          "name": "action",
          "type": "string"
        },
        {
          "indexed": false,
          "internalType": "address",
          "name": "uploader",
          "type": "address"
        }
      ],
      "name": "FileUploadedEvent",
      "type": "event"
    },
    {
      "inputs": [],
      "name": "contractName",
      "outputs": [
        {
          "internalType": "string",
          "name": "",
          "type": "string"
        }
      ],
      "stateMutability": "view",
      "type": "function",
      "constant": true
    },
    {
      "inputs": [],
      "name": "getTotalFileCount",
      "outputs": [
        {
          "internalType": "uint256",
          "name": "",
          "type": "uint256"
        }
      ],
      "stateMutability": "view",
      "type": "function",
      "constant": true
    },
    {
      "inputs": [
        {
          "internalType": "uint256",
          "name": "_fileId",
          "type": "uint256"
        }
      ],
      "name": "getFileOf",
      "outputs": [
        {
          "components": [
            {
              "internalType": "uint256",
              "name": "fileId",
              "type": "uint256"
            },
            {
              "internalType": "string",
              "name": "fileHash",
              "type": "string"
            },
            {
              "internalType": "uint256",
              "name": "fileSize",
              "type": "uint256"
            },
            {
              "internalType": "string",
              "name": "fileType",
              "type": "string"
            },
            {
              "internalType": "string",
              "name": "fileName",
              "type": "string"
            },
            {
              "internalType": "string",
              "name": "fileDes",
              "type": "string"
            },
            {
              "internalType": "uint256",
              "name": "uploadTime",
              "type": "uint256"
            },
            {
              "internalType": "address",
              "name": "uploader",
              "type": "address"
            }
          ],
          "internalType": "struct DataDen.File",
          "name": "",
          "type": "tuple"
        }
      ],
      "stateMutability": "view",
      "type": "function",
      "constant": true
    },
    {
      "inputs": [
        {
          "internalType": "string",
          "name": "_fileHash",
          "type": "string"
        },
        {
          "internalType": "uint256",
          "name": "_fileSize",
          "type": "uint256"
        },
        {
          "internalType": "string",
          "name": "_fileType",
          "type": "string"
        },
        {
          "internalType": "string",
          "name": "_fileName",
          "type": "string"
        },
        {
          "internalType": "string",
          "name": "_fileDescription",
          "type": "string"
        }
      ],
      "name": "uploadFile",
      "outputs": [],
      "stateMutability": "nonpayable",
      "type": "function"
    },
    {
      "inputs": [
        {
          "internalType": "uint256",
          "name": "_id",
          "type": "uint256"
        }
      ],
      "name": "deleteFile",
      "outputs": [],
      "stateMutability": "nonpayable",
      "type": "function"
    },
    {
      "inputs": [
        {
          "internalType": "uint256",
          "name": "_id",
          "type": "uint256"
        }
      ],
      "name": "deleteFileForever",
      "outputs": [],
      "stateMutability": "nonpayable",
      "type": "function"
    },
    {
      "inputs": [
        {
          "internalType": "uint256",
          "name": "_id",
          "type": "uint256"
        },
        {
          "internalType": "string",
          "name": "_fileHash",
          "type": "string"
        }
      ],
      "name": "downloadFile",
      "outputs": [],
      "stateMutability": "nonpayable",
      "type": "function"
    },
    {
      "inputs": [
        {
          "internalType": "uint256",
          "name": "_id",
          "type": "uint256"
        },
        {
          "internalType": "string",
          "name": "_renameFileName",
          "type": "string"
        }
      ],
      "name": "renameFile",
      "outputs": [],
      "stateMutability": "nonpayable",
      "type": "function"
    },
    {
      "inputs": [
        {
          "internalType": "uint256",
          "name": "_id",
          "type": "uint256"
        },
        {
          "internalType": "string",
          "name": "_name",
          "type": "string"
        },
        {
          "internalType": "string",
          "name": "_des",
          "type": "string"
        }
      ],
      "name": "editFileDeatils",
      "outputs": [],
      "stateMutability": "nonpayable",
      "type": "function"
    },
    {
      "inputs": [
        {
          "internalType": "address",
          "name": "_recipient",
          "type": "address"
        },
        {
          "internalType": "string",
          "name": "_fileHash",
          "type": "string"
        },
        {
          "internalType": "string",
          "name": "_fileType",
          "type": "string"
        },
        {
          "internalType": "string",
          "name": "_fileName",
          "type": "string"
        },
        {
          "internalType": "uint256",
          "name": "_fileSize",
          "type": "uint256"
        },
        {
          "internalType": "string",
          "name": "_fileDescription",
          "type": "string"
        },
        {
          "internalType": "uint256",
          "name": "_uploadTime",
          "type": "uint256"
        }
      ],
      "name": "shareMyfile",
      "outputs": [],
      "stateMutability": "nonpayable",
      "type": "function"
    }
  ],
  "bytecode": "0x60806040526040518060400160405280601e81526020017f446174612044656e20446563656e7472616c697a65642053746f726167650000815250600090816200004a9190620002d9565b503480156200005857600080fd5b50620003c0565b600081519050919050565b7f4e487b7100000000000000000000000000000000000000000000000000000000600052604160045260246000fd5b7f4e487b7100000000000000000000000000000000000000000000000000000000600052602260045260246000fd5b60006002820490506001821680620000e157607f821691505b602082108103620000f757620000f662000099565b5b50919050565b60008190508160005260206000209050919050565b60006020601f8301049050919050565b600082821b905092915050565b600060088302620001617fffffffffffffffffffffffffffffffffffffffffffffffffffffffffffffffff8262000122565b6200016d868362000122565b95508019841693508086168417925050509392505050565b6000819050919050565b6000819050919050565b6000620001ba620001b4620001ae8462000185565b6200018f565b62000185565b9050919050565b6000819050919050565b620001d68362000199565b620001ee620001e582620001c1565b8484546200012f565b825550505050565b600090565b62000205620001f6565b62000212818484620001cb565b505050565b5b818110156200023a576200022e600082620001fb565b60018101905062000218565b5050565b601f82111562000289576200025381620000fd565b6200025e8462000112565b810160208510156200026e578190505b620002866200027d8562000112565b83018262000217565b50505b505050565b600082821c905092915050565b6000620002ae600019846008026200028e565b1980831691505092915050565b6000620002c983836200029b565b9150826002028217905092915050565b620002e4826200005f565b67ffffffffffffffff8111156200030057620002ff6200006a565b5b6200030c8254620000c8565b620003198282856200023e565b600060209050601f8311600181146200035157600084156200033c578287015190505b620003488582620002bb565b865550620003b8565b601f1984166200036186620000fd565b60005b828110156200038b5784890151825560018201915060208501945060208101905062000364565b86831015620003ab5784890151620003a7601f8916826200029b565b8355505b6001600288020188555050505b505050505050565b611be580620003d06000396000f3fe608060405234801561001057600080fd5b506004361061009e5760003560e01c8063c46e209211610066578063c46e209214610145578063c5b4200614610163578063cd58afc11461017f578063dd986f161461019b578063e82d9d33146101b75761009e565b806317815c1c146100a35780632b8b3c8f146100bf5780634495e216146100db57806375d0c0dc1461010b578063c32c7c1314610129575b600080fd5b6100bd60048036038101906100b8919061122c565b6101d3565b005b6100d960048036038101906100d4919061133e565b610559565b005b6100f560048036038101906100f091906113c9565b610620565b6040516101029190611558565b60405180910390f35b610113610947565b60405161012091906115c4565b60405180910390f35b610143600480360381019061013e91906115e6565b6109d5565b005b61014d610a3a565b60405161015a9190611651565b60405180910390f35b61017d600480360381019061017891906113c9565b610a81565b005b610199600480360381019061019491906115e6565b610b1a565b005b6101b560048036038101906101b091906113c9565b610b7f565b005b6101d160048036038101906101cc919061166c565b610cf8565b005b600260008873ffffffffffffffffffffffffffffffffffffffff1673ffffffffffffffffffffffffffffffffffffffff168152602001908152602001600020600081548092919061022390611786565b9190505550610230610fe3565b86816020018190525085816060018190525084816080018190525083816040018181525050828160a00181905250818160c0018181525050338160e0019073ffffffffffffffffffffffffffffffffffffffff16908173ffffffffffffffffffffffffffffffffffffffff1681525050600460008973ffffffffffffffffffffffffffffffffffffffff1673ffffffffffffffffffffffffffffffffffffffff16815260200190815260200160002081908060018154018082558091505060019003906000526020600020906008020160009091909190915060008201518160000155602082015181600101908161032891906119da565b5060408201518160020155606082015181600301908161034891906119da565b50608082015181600401908161035e91906119da565b5060a082015181600501908161037491906119da565b5060c0820151816006015560e08201518160070160006101000a81548173ffffffffffffffffffffffffffffffffffffffff021916908373ffffffffffffffffffffffffffffffffffffffff160217905550505080600360008a73ffffffffffffffffffffffffffffffffffffffff1673ffffffffffffffffffffffffffffffffffffffff1681526020019081526020016000206000600260008c73ffffffffffffffffffffffffffffffffffffffff1673ffffffffffffffffffffffffffffffffffffffff16815260200190815260200160002054815260200190815260200160002060008201518160000155602082015181600101908161047791906119da565b5060408201518160020155606082015181600301908161049791906119da565b5060808201518160040190816104ad91906119da565b5060a08201518160050190816104c391906119da565b5060c0820151816006015560e08201518160070160006101000a81548173ffffffffffffffffffffffffffffffffffffffff021916908373ffffffffffffffffffffffffffffffffffffffff1602179055509050507f09b4a9d4e432544073816c687a5a6d6e5c8ef151a3cc55eabab7de7ca2ecdc45336040516105479190611b07565b60405180910390a15050505050505050565b81600360003373ffffffffffffffffffffffffffffffffffffffff1673ffffffffffffffffffffffffffffffffffffffff168152602001908152602001600020600085815260200190815260200160002060040190816105b991906119da565b5080600360003373ffffffffffffffffffffffffffffffffffffffff1673ffffffffffffffffffffffffffffffffffffffff1681526020019081526020016000206000858152602001908152602001600020600501908161061a91906119da565b50505050565b610628610fe3565b600360003373ffffffffffffffffffffffffffffffffffffffff1673ffffffffffffffffffffffffffffffffffffffff1681526020019081526020016000206000838152602001908152602001600020604051806101000160405290816000820154815260200160018201805461069e906117fd565b80601f01602080910402602001604051908101604052809291908181526020018280546106ca906117fd565b80156107175780601f106106ec57610100808354040283529160200191610717565b820191906000526020600020905b8154815290600101906020018083116106fa57829003601f168201915b505050505081526020016002820154815260200160038201805461073a906117fd565b80601f0160208091040260200160405190810160405280929190818152602001828054610766906117fd565b80156107b35780601f10610788576101008083540402835291602001916107b3565b820191906000526020600020905b81548152906001019060200180831161079657829003601f168201915b505050505081526020016004820180546107cc906117fd565b80601f01602080910402602001604051908101604052809291908181526020018280546107f8906117fd565b80156108455780601f1061081a57610100808354040283529160200191610845565b820191906000526020600020905b81548152906001019060200180831161082857829003601f168201915b5050505050815260200160058201805461085e906117fd565b80601f016020809104026020016040519081016040528092919081815260200182805461088a906117fd565b80156108d75780601f106108ac576101008083540402835291602001916108d7565b820191906000526020600020905b8154815290600101906020018083116108ba57829003601f168201915b50505050508152602001600682015481526020016007820160009054906101000a900473ffffffffffffffffffffffffffffffffffffffff1673ffffffffffffffffffffffffffffffffffffffff1673ffffffffffffffffffffffffffffffffffffffff16815250509050919050565b60008054610954906117fd565b80601f0160208091040260200160405190810160405280929190818152602001828054610980906117fd565b80156109cd5780601f106109a2576101008083540402835291602001916109cd565b820191906000526020600020905b8154815290600101906020018083116109b057829003601f168201915b505050505081565b80600360003373ffffffffffffffffffffffffffffffffffffffff1673ffffffffffffffffffffffffffffffffffffffff16815260200190815260200160002060008481526020019081526020016000206004019081610a3591906119da565b505050565b6000600260003373ffffffffffffffffffffffffffffffffffffffff1673ffffffffffffffffffffffffffffffffffffffff16815260200190815260200160002054905090565b6040518060400160405280600981526020017f3064656c657465645f0000000000000000000000000000000000000000000000815250600360003373ffffffffffffffffffffffffffffffffffffffff1673ffffffffffffffffffffffffffffffffffffffff16815260200190815260200160002060008381526020019081526020016000206004019081610b1691906119da565b5050565b80600360003373ffffffffffffffffffffffffffffffffffffffff1673ffffffffffffffffffffffffffffffffffffffff16815260200190815260200160002060008481526020019081526020016000206001019081610b7a91906119da565b505050565b60405180602001604052806000815250600360003373ffffffffffffffffffffffffffffffffffffffff1673ffffffffffffffffffffffffffffffffffffffff16815260200190815260200160002060008381526020019081526020016000206001019081610bee91906119da565b506040518060400160405280601181526020017f3064656c657465645f666f72657665725f000000000000000000000000000000815250600360003373ffffffffffffffffffffffffffffffffffffffff1673ffffffffffffffffffffffffffffffffffffffff16815260200190815260200160002060008381526020019081526020016000206004019081610c8491906119da565b5060405180602001604052806000815250600360003373ffffffffffffffffffffffffffffffffffffffff1673ffffffffffffffffffffffffffffffffffffffff16815260200190815260200160002060008381526020019081526020016000206005019081610cf491906119da565b5050565b60008551118015610d0a575060008351115b8015610d17575060008151115b8015610d24575060008251115b8015610d5d5750600073ffffffffffffffffffffffffffffffffffffffff163373ffffffffffffffffffffffffffffffffffffffff1614155b8015610d695750600084115b610d7257600080fd5b600260003373ffffffffffffffffffffffffffffffffffffffff1673ffffffffffffffffffffffffffffffffffffffff1681526020019081526020016000206000815480929190610dc290611786565b9190505550604051806101000160405280600260003373ffffffffffffffffffffffffffffffffffffffff1673ffffffffffffffffffffffffffffffffffffffff1681526020019081526020016000205481526020018681526020018581526020018481526020018381526020018281526020014281526020013373ffffffffffffffffffffffffffffffffffffffff16815250600360003373ffffffffffffffffffffffffffffffffffffffff1673ffffffffffffffffffffffffffffffffffffffff1681526020019081526020016000206000600260003373ffffffffffffffffffffffffffffffffffffffff1673ffffffffffffffffffffffffffffffffffffffff168152602001908152602001600020548152602001908152602001600020600082015181600001556020820151816001019081610f0491906119da565b50604082015181600201556060820151816003019081610f2491906119da565b506080820151816004019081610f3a91906119da565b5060a0820151816005019081610f5091906119da565b5060c0820151816006015560e08201518160070160006101000a81548173ffffffffffffffffffffffffffffffffffffffff021916908373ffffffffffffffffffffffffffffffffffffffff1602179055509050507f09b4a9d4e432544073816c687a5a6d6e5c8ef151a3cc55eabab7de7ca2ecdc4533604051610fd49190611b81565b60405180910390a15050505050565b60405180610100016040528060008152602001606081526020016000815260200160608152602001606081526020016060815260200160008152602001600073ffffffffffffffffffffffffffffffffffffffff1681525090565b6000604051905090565b600080fd5b600080fd5b600073ffffffffffffffffffffffffffffffffffffffff82169050919050565b600061107d82611052565b9050919050565b61108d81611072565b811461109857600080fd5b50565b6000813590506110aa81611084565b92915050565b600080fd5b600080fd5b6000601f19601f8301169050919050565b7f4e487b7100000000000000000000000000000000000000000000000000000000600052604160045260246000fd5b611103826110ba565b810181811067ffffffffffffffff82111715611122576111216110cb565b5b80604052505050565b600061113561103e565b905061114182826110fa565b919050565b600067ffffffffffffffff821115611161576111606110cb565b5b61116a826110ba565b9050602081019050919050565b82818337600083830152505050565b600061119961119484611146565b61112b565b9050828152602081018484840111156111b5576111b46110b5565b5b6111c0848285611177565b509392505050565b600082601f8301126111dd576111dc6110b0565b5b81356111ed848260208601611186565b91505092915050565b6000819050919050565b611209816111f6565b811461121457600080fd5b50565b60008135905061122681611200565b92915050565b600080600080600080600060e0888a03121561124b5761124a611048565b5b60006112598a828b0161109b565b975050602088013567ffffffffffffffff81111561127a5761127961104d565b5b6112868a828b016111c8565b965050604088013567ffffffffffffffff8111156112a7576112a661104d565b5b6112b38a828b016111c8565b955050606088013567ffffffffffffffff8111156112d4576112d361104d565b5b6112e08a828b016111c8565b94505060806112f18a828b01611217565b93505060a088013567ffffffffffffffff8111156113125761131161104d565b5b61131e8a828b016111c8565b92505060c061132f8a828b01611217565b91505092959891949750929550565b60008060006060848603121561135757611356611048565b5b600061136586828701611217565b935050602084013567ffffffffffffffff8111156113865761138561104d565b5b611392868287016111c8565b925050604084013567ffffffffffffffff8111156113b3576113b261104d565b5b6113bf868287016111c8565b9150509250925092565b6000602082840312156113df576113de611048565b5b60006113ed84828501611217565b91505092915050565b6113ff816111f6565b82525050565b600081519050919050565b600082825260208201905092915050565b60005b8381101561143f578082015181840152602081019050611424565b60008484015250505050565b600061145682611405565b6114608185611410565b9350611470818560208601611421565b611479816110ba565b840191505092915050565b61148d81611072565b82525050565b6000610100830160008301516114ac60008601826113f6565b50602083015184820360208601526114c4828261144b565b91505060408301516114d960408601826113f6565b50606083015184820360608601526114f1828261144b565b9150506080830151848203608086015261150b828261144b565b91505060a083015184820360a0860152611525828261144b565b91505060c083015161153a60c08601826113f6565b5060e083015161154d60e0860182611484565b508091505092915050565b600060208201905081810360008301526115728184611493565b905092915050565b600082825260208201905092915050565b600061159682611405565b6115a0818561157a565b93506115b0818560208601611421565b6115b9816110ba565b840191505092915050565b600060208201905081810360008301526115de818461158b565b905092915050565b600080604083850312156115fd576115fc611048565b5b600061160b85828601611217565b925050602083013567ffffffffffffffff81111561162c5761162b61104d565b5b611638858286016111c8565b9150509250929050565b61164b816111f6565b82525050565b60006020820190506116666000830184611642565b92915050565b600080600080600060a0868803121561168857611687611048565b5b600086013567ffffffffffffffff8111156116a6576116a561104d565b5b6116b2888289016111c8565b95505060206116c388828901611217565b945050604086013567ffffffffffffffff8111156116e4576116e361104d565b5b6116f0888289016111c8565b935050606086013567ffffffffffffffff8111156117115761171061104d565b5b61171d888289016111c8565b925050608086013567ffffffffffffffff81111561173e5761173d61104d565b5b61174a888289016111c8565b9150509295509295909350565b7f4e487b7100000000000000000000000000000000000000000000000000000000600052601160045260246000fd5b6000611791826111f6565b91507fffffffffffffffffffffffffffffffffffffffffffffffffffffffffffffffff82036117c3576117c2611757565b5b600182019050919050565b7f4e487b7100000000000000000000000000000000000000000000000000000000600052602260045260246000fd5b6000600282049050600182168061181557607f821691505b602082108103611828576118276117ce565b5b50919050565b60008190508160005260206000209050919050565b60006020601f8301049050919050565b600082821b905092915050565b6000600883026118907fffffffffffffffffffffffffffffffffffffffffffffffffffffffffffffffff82611853565b61189a8683611853565b95508019841693508086168417925050509392505050565b6000819050919050565b60006118d76118d26118cd846111f6565b6118b2565b6111f6565b9050919050565b6000819050919050565b6118f1836118bc565b6119056118fd826118de565b848454611860565b825550505050565b600090565b61191a61190d565b6119258184846118e8565b505050565b5b818110156119495761193e600082611912565b60018101905061192b565b5050565b601f82111561198e5761195f8161182e565b61196884611843565b81016020851015611977578190505b61198b61198385611843565b83018261192a565b50505b505050565b600082821c905092915050565b60006119b160001984600802611993565b1980831691505092915050565b60006119ca83836119a0565b9150826002028217905092915050565b6119e382611405565b67ffffffffffffffff8111156119fc576119fb6110cb565b5b611a0682546117fd565b611a1182828561194d565b600060209050601f831160018114611a445760008415611a32578287015190505b611a3c85826119be565b865550611aa4565b601f198416611a528661182e565b60005b82811015611a7a57848901518255600182019150602085019450602081019050611a55565b86831015611a975784890151611a93601f8916826119a0565b8355505b6001600288020188555050505b505050505050565b7f46696c6520536861726564000000000000000000000000000000000000000000600082015250565b6000611ae2600b8361157a565b9150611aed82611aac565b602082019050919050565b611b0181611072565b82525050565b60006040820190508181036000830152611b2081611ad5565b9050611b2f6020830184611af8565b92915050565b7f46696c652055706c6f6164656400000000000000000000000000000000000000600082015250565b6000611b6b600d8361157a565b9150611b7682611b35565b602082019050919050565b60006040820190508181036000830152611b9a81611b5e565b9050611ba96020830184611af8565b9291505056fea264697066735822122041dc982418a59708f87b05e95469157067367545ad724951554ef6a36fd900d864736f6c63430008130033",
  "immutableReferences": {},
  "source": "// SPDX-License-Identifier: MIT\npragma solidity >=0.4.22 <0.9.0;\n\ncontract DataDen {\n    string public contractName = \"Data Den Decentralized Storage\";\n\n    address owner;\n\n    modifier onlyowner() {\n        require(msg.sender == owner, \"You are not allowed\");\n        _;\n    }\n\n    mapping(address => uint256) internal totalFilesOf;\n\n    mapping(address => mapping(uint256 => File)) internal fileOf;\n\n    mapping(address => File[]) files_per_user;\n\n    struct File {\n        uint256 fileId;\n        string fileHash;\n        uint256 fileSize;\n        string fileType;\n        string fileName;\n        string fileDes;\n        uint256 uploadTime;\n        address uploader;\n    }\n\n    event FileUploadedEvent(string action, address uploader);\n\n    function getTotalFileCount() public view returns (uint256) {\n        return totalFilesOf[msg.sender];\n    }\n\n    function getFileOf(uint256 _fileId) public view returns (File memory) {\n        return fileOf[msg.sender][_fileId];\n    }\n\n    //start =>  upload- delete-edit\n    function uploadFile(\n        string memory _fileHash,\n        uint256 _fileSize,\n        string memory _fileType,\n        string memory _fileName,\n        string memory _fileDescription\n    ) public {\n        require(\n            bytes(_fileHash).length > 0 &&\n                bytes(_fileType).length > 0 &&\n                bytes(_fileDescription).length > 0 &&\n                bytes(_fileName).length > 0 &&\n                msg.sender != address(0) &&\n                _fileSize > 0\n        );\n\n        totalFilesOf[msg.sender]++;\n\n        fileOf[msg.sender][totalFilesOf[msg.sender]] = File(\n            totalFilesOf[msg.sender],\n            _fileHash,\n            _fileSize,\n            _fileType,\n            _fileName,\n            _fileDescription,\n            block.timestamp,\n            msg.sender\n        );\n\n        emit FileUploadedEvent(\"File Uploaded\", msg.sender);\n    }\n\n    function deleteFile(uint256 _id) public {\n        fileOf[msg.sender][_id].fileName = \"0deleted_\";\n    }\n\n    function deleteFileForever(uint256 _id) public {\n        fileOf[msg.sender][_id].fileHash = \"\";\n        fileOf[msg.sender][_id].fileName = \"0deleted_forever_\";\n        fileOf[msg.sender][_id].fileDes = \"\";\n    }\n\n    function downloadFile(uint256 _id, string memory _fileHash) public {\n        fileOf[msg.sender][_id].fileHash = _fileHash;\n    }\n\n    function renameFile(uint256 _id, string memory _renameFileName) public {\n        fileOf[msg.sender][_id].fileName = _renameFileName;\n    }\n\n    function editFileDeatils(\n        uint256 _id,\n        string memory _name,\n        string memory _des\n    ) public {\n        fileOf[msg.sender][_id].fileName = _name;\n        fileOf[msg.sender][_id].fileDes = _des;\n    }\n\n    //end =>  upload- delete-edit\n    \n    function shareMyfile(\n        address _recipient,\n        string memory _fileHash,\n        string memory _fileType,\n        string memory _fileName,\n        uint256 _fileSize,\n        string memory _fileDescription,\n        uint256 _uploadTime\n    ) public {\n        totalFilesOf[_recipient]++; // Increment the file count for the recipient\n\n        File memory sharedFile;\n        sharedFile.fileHash = _fileHash;\n        sharedFile.fileType = _fileType;\n        sharedFile.fileName = _fileName;\n        sharedFile.fileSize = _fileSize;\n        sharedFile.fileDes = _fileDescription;\n        sharedFile.uploadTime = _uploadTime;\n        sharedFile.uploader = msg.sender;\n\n        files_per_user[_recipient].push(sharedFile); // Add the shared file to the recipient's files\n\n        fileOf[_recipient][totalFilesOf[_recipient]] = sharedFile;\n\n        emit FileUploadedEvent(\"File Shared\", msg.sender);\n    }\n}\n",
  "sourcePath": "/Users/csuftitan/Desktop/DATADEN CHECK/DataDen/src/contracts/DataDen.sol",
  "compiler": {
    "name": "solc",
    "version": "0.8.19+commit.7dd6d404.Emscripten.clang"
  },
  "schemaVersion": "3.4.11",
  "updatedAt": "2023-05-08T04:21:50.122Z",
  "networkType": "ethereum",
  "devdoc": {
    "kind": "dev",
    "methods": {},
    "version": 1
  },
  "userdoc": {
    "kind": "user",
    "methods": {},
    "version": 1
  }
}