{
  "contractName": "OurStorageDapp",
  "abi": [
    {
      "anonymous": false,
      "inputs": [
        {
          "indexed": false,
          "internalType": "string",
          "name": "action",
          "type": "string"
        },
        {
          "indexed": false,
          "internalType": "address",
          "name": "uploader",
          "type": "address"
        }
      ],
      "name": "FileUploadedEvent",
      "type": "event"
    },
    {
      "inputs": [],
      "name": "contractName",
      "outputs": [
        {
          "internalType": "string",
          "name": "",
          "type": "string"
        }
      ],
      "stateMutability": "view",
      "type": "function",
      "constant": true
    },
    {
      "inputs": [],
      "name": "getTotalFileCount",
      "outputs": [
        {
          "internalType": "uint256",
          "name": "",
          "type": "uint256"
        }
      ],
      "stateMutability": "view",
      "type": "function",
      "constant": true
    },
    {
      "inputs": [
        {
          "internalType": "uint256",
          "name": "_fileId",
          "type": "uint256"
        }
      ],
      "name": "getFileOf",
      "outputs": [
        {
          "components": [
            {
              "internalType": "uint256",
              "name": "fileId",
              "type": "uint256"
            },
            {
              "internalType": "string",
              "name": "fileHash",
              "type": "string"
            },
            {
              "internalType": "uint256",
              "name": "fileSize",
              "type": "uint256"
            },
            {
              "internalType": "string",
              "name": "fileType",
              "type": "string"
            },
            {
              "internalType": "string",
              "name": "fileName",
              "type": "string"
            },
            {
              "internalType": "string",
              "name": "fileDes",
              "type": "string"
            },
            {
              "internalType": "uint256",
              "name": "uploadTime",
              "type": "uint256"
            },
            {
              "internalType": "address",
              "name": "uploader",
              "type": "address"
            }
          ],
          "internalType": "struct OurStorageDapp.File",
          "name": "",
          "type": "tuple"
        }
      ],
      "stateMutability": "view",
      "type": "function",
      "constant": true
    },
    {
      "inputs": [
        {
          "internalType": "string",
          "name": "_fileHash",
          "type": "string"
        },
        {
          "internalType": "uint256",
          "name": "_fileSize",
          "type": "uint256"
        },
        {
          "internalType": "string",
          "name": "_fileType",
          "type": "string"
        },
        {
          "internalType": "string",
          "name": "_fileName",
          "type": "string"
        },
        {
          "internalType": "string",
          "name": "_fileDescription",
          "type": "string"
        }
      ],
      "name": "uploadFile",
      "outputs": [],
      "stateMutability": "nonpayable",
      "type": "function"
    },
    {
      "inputs": [
        {
          "internalType": "uint256",
          "name": "_id",
          "type": "uint256"
        }
      ],
      "name": "deleteFile",
      "outputs": [],
      "stateMutability": "nonpayable",
      "type": "function"
    },
    {
      "inputs": [
        {
          "internalType": "uint256",
          "name": "_id",
          "type": "uint256"
        }
      ],
      "name": "deleteFileForever",
      "outputs": [],
      "stateMutability": "nonpayable",
      "type": "function"
    },
    {
      "inputs": [
        {
          "internalType": "uint256",
          "name": "_id",
          "type": "uint256"
        },
        {
          "internalType": "string",
          "name": "_name",
          "type": "string"
        },
        {
          "internalType": "string",
          "name": "_des",
          "type": "string"
        }
      ],
      "name": "editFileDeatils",
      "outputs": [],
      "stateMutability": "nonpayable",
      "type": "function"
    }
  ],
  "bytecode": "0x60806040526040518060400160405280601f81526020017f4f757220446563656e7472616c697a65642053746f7261676520284f44532900815250600090816200004a9190620002d9565b503480156200005857600080fd5b50620003c0565b600081519050919050565b7f4e487b7100000000000000000000000000000000000000000000000000000000600052604160045260246000fd5b7f4e487b7100000000000000000000000000000000000000000000000000000000600052602260045260246000fd5b60006002820490506001821680620000e157607f821691505b602082108103620000f757620000f662000099565b5b50919050565b60008190508160005260206000209050919050565b60006020601f8301049050919050565b600082821b905092915050565b600060088302620001617fffffffffffffffffffffffffffffffffffffffffffffffffffffffffffffffff8262000122565b6200016d868362000122565b95508019841693508086168417925050509392505050565b6000819050919050565b6000819050919050565b6000620001ba620001b4620001ae8462000185565b6200018f565b62000185565b9050919050565b6000819050919050565b620001d68362000199565b620001ee620001e582620001c1565b8484546200012f565b825550505050565b600090565b62000205620001f6565b62000212818484620001cb565b505050565b5b818110156200023a576200022e600082620001fb565b60018101905062000218565b5050565b601f82111562000289576200025381620000fd565b6200025e8462000112565b810160208510156200026e578190505b620002866200027d8562000112565b83018262000217565b50505b505050565b600082821c905092915050565b6000620002ae600019846008026200028e565b1980831691505092915050565b6000620002c983836200029b565b9150826002028217905092915050565b620002e4826200005f565b67ffffffffffffffff8111156200030057620002ff6200006a565b5b6200030c8254620000c8565b620003198282856200023e565b600060209050601f8311600181146200035157600084156200033c578287015190505b620003488582620002bb565b865550620003b8565b601f1984166200036186620000fd565b60005b828110156200038b5784890151825560018201915060208501945060208101905062000364565b86831015620003ab5784890151620003a7601f8916826200029b565b8355505b6001600288020188555050505b505050505050565b61150c80620003d06000396000f3fe608060405234801561001057600080fd5b506004361061007d5760003560e01c8063c46e20921161005b578063c46e2092146100ec578063c5b420061461010a578063dd986f1614610126578063e82d9d33146101425761007d565b80632b8b3c8f146100825780634495e2161461009e57806375d0c0dc146100ce575b600080fd5b61009c60048036038101906100979190610d09565b61015e565b005b6100b860048036038101906100b39190610d94565b610225565b6040516100c59190610f55565b60405180910390f35b6100d661054c565b6040516100e39190610fc1565b60405180910390f35b6100f46105da565b6040516101019190610ff2565b60405180910390f35b610124600480360381019061011f9190610d94565b610621565b005b610140600480360381019061013b9190610d94565b6106ba565b005b61015c6004803603810190610157919061100d565b610833565b005b81600260003373ffffffffffffffffffffffffffffffffffffffff1673ffffffffffffffffffffffffffffffffffffffff168152602001908152602001600020600085815260200190815260200160002060040190816101be9190611304565b5080600260003373ffffffffffffffffffffffffffffffffffffffff1673ffffffffffffffffffffffffffffffffffffffff1681526020019081526020016000206000858152602001908152602001600020600501908161021f9190611304565b50505050565b61022d610b1e565b600260003373ffffffffffffffffffffffffffffffffffffffff1673ffffffffffffffffffffffffffffffffffffffff168152602001908152602001600020600083815260200190815260200160002060405180610100016040529081600082015481526020016001820180546102a390611127565b80601f01602080910402602001604051908101604052809291908181526020018280546102cf90611127565b801561031c5780601f106102f15761010080835404028352916020019161031c565b820191906000526020600020905b8154815290600101906020018083116102ff57829003601f168201915b505050505081526020016002820154815260200160038201805461033f90611127565b80601f016020809104026020016040519081016040528092919081815260200182805461036b90611127565b80156103b85780601f1061038d576101008083540402835291602001916103b8565b820191906000526020600020905b81548152906001019060200180831161039b57829003601f168201915b505050505081526020016004820180546103d190611127565b80601f01602080910402602001604051908101604052809291908181526020018280546103fd90611127565b801561044a5780601f1061041f5761010080835404028352916020019161044a565b820191906000526020600020905b81548152906001019060200180831161042d57829003601f168201915b5050505050815260200160058201805461046390611127565b80601f016020809104026020016040519081016040528092919081815260200182805461048f90611127565b80156104dc5780601f106104b1576101008083540402835291602001916104dc565b820191906000526020600020905b8154815290600101906020018083116104bf57829003601f168201915b50505050508152602001600682015481526020016007820160009054906101000a900473ffffffffffffffffffffffffffffffffffffffff1673ffffffffffffffffffffffffffffffffffffffff1673ffffffffffffffffffffffffffffffffffffffff16815250509050919050565b6000805461055990611127565b80601f016020809104026020016040519081016040528092919081815260200182805461058590611127565b80156105d25780601f106105a7576101008083540402835291602001916105d2565b820191906000526020600020905b8154815290600101906020018083116105b557829003601f168201915b505050505081565b6000600160003373ffffffffffffffffffffffffffffffffffffffff1673ffffffffffffffffffffffffffffffffffffffff16815260200190815260200160002054905090565b6040518060400160405280600981526020017f3064656c657465645f0000000000000000000000000000000000000000000000815250600260003373ffffffffffffffffffffffffffffffffffffffff1673ffffffffffffffffffffffffffffffffffffffff168152602001908152602001600020600083815260200190815260200160002060040190816106b69190611304565b5050565b60405180602001604052806000815250600260003373ffffffffffffffffffffffffffffffffffffffff1673ffffffffffffffffffffffffffffffffffffffff168152602001908152602001600020600083815260200190815260200160002060010190816107299190611304565b506040518060400160405280601181526020017f3064656c657465645f666f72657665725f000000000000000000000000000000815250600260003373ffffffffffffffffffffffffffffffffffffffff1673ffffffffffffffffffffffffffffffffffffffff168152602001908152602001600020600083815260200190815260200160002060040190816107bf9190611304565b5060405180602001604052806000815250600260003373ffffffffffffffffffffffffffffffffffffffff1673ffffffffffffffffffffffffffffffffffffffff1681526020019081526020016000206000838152602001908152602001600020600501908161082f9190611304565b5050565b60008551118015610845575060008351115b8015610852575060008151115b801561085f575060008251115b80156108985750600073ffffffffffffffffffffffffffffffffffffffff163373ffffffffffffffffffffffffffffffffffffffff1614155b80156108a45750600084115b6108ad57600080fd5b600160003373ffffffffffffffffffffffffffffffffffffffff1673ffffffffffffffffffffffffffffffffffffffff16815260200190815260200160002060008154809291906108fd90611405565b9190505550604051806101000160405280600160003373ffffffffffffffffffffffffffffffffffffffff1673ffffffffffffffffffffffffffffffffffffffff1681526020019081526020016000205481526020018681526020018581526020018481526020018381526020018281526020014281526020013373ffffffffffffffffffffffffffffffffffffffff16815250600260003373ffffffffffffffffffffffffffffffffffffffff1673ffffffffffffffffffffffffffffffffffffffff1681526020019081526020016000206000600160003373ffffffffffffffffffffffffffffffffffffffff1673ffffffffffffffffffffffffffffffffffffffff168152602001908152602001600020548152602001908152602001600020600082015181600001556020820151816001019081610a3f9190611304565b50604082015181600201556060820151816003019081610a5f9190611304565b506080820151816004019081610a759190611304565b5060a0820151816005019081610a8b9190611304565b5060c0820151816006015560e08201518160070160006101000a81548173ffffffffffffffffffffffffffffffffffffffff021916908373ffffffffffffffffffffffffffffffffffffffff1602179055509050507f09b4a9d4e432544073816c687a5a6d6e5c8ef151a3cc55eabab7de7ca2ecdc4533604051610b0f91906114a8565b60405180910390a15050505050565b60405180610100016040528060008152602001606081526020016000815260200160608152602001606081526020016060815260200160008152602001600073ffffffffffffffffffffffffffffffffffffffff1681525090565b6000604051905090565b600080fd5b600080fd5b6000819050919050565b610ba081610b8d565b8114610bab57600080fd5b50565b600081359050610bbd81610b97565b92915050565b600080fd5b600080fd5b6000601f19601f8301169050919050565b7f4e487b7100000000000000000000000000000000000000000000000000000000600052604160045260246000fd5b610c1682610bcd565b810181811067ffffffffffffffff82111715610c3557610c34610bde565b5b80604052505050565b6000610c48610b79565b9050610c548282610c0d565b919050565b600067ffffffffffffffff821115610c7457610c73610bde565b5b610c7d82610bcd565b9050602081019050919050565b82818337600083830152505050565b6000610cac610ca784610c59565b610c3e565b905082815260208101848484011115610cc857610cc7610bc8565b5b610cd3848285610c8a565b509392505050565b600082601f830112610cf057610cef610bc3565b5b8135610d00848260208601610c99565b91505092915050565b600080600060608486031215610d2257610d21610b83565b5b6000610d3086828701610bae565b935050602084013567ffffffffffffffff811115610d5157610d50610b88565b5b610d5d86828701610cdb565b925050604084013567ffffffffffffffff811115610d7e57610d7d610b88565b5b610d8a86828701610cdb565b9150509250925092565b600060208284031215610daa57610da9610b83565b5b6000610db884828501610bae565b91505092915050565b610dca81610b8d565b82525050565b600081519050919050565b600082825260208201905092915050565b60005b83811015610e0a578082015181840152602081019050610def565b60008484015250505050565b6000610e2182610dd0565b610e2b8185610ddb565b9350610e3b818560208601610dec565b610e4481610bcd565b840191505092915050565b600073ffffffffffffffffffffffffffffffffffffffff82169050919050565b6000610e7a82610e4f565b9050919050565b610e8a81610e6f565b82525050565b600061010083016000830151610ea96000860182610dc1565b5060208301518482036020860152610ec18282610e16565b9150506040830151610ed66040860182610dc1565b5060608301518482036060860152610eee8282610e16565b91505060808301518482036080860152610f088282610e16565b91505060a083015184820360a0860152610f228282610e16565b91505060c0830151610f3760c0860182610dc1565b5060e0830151610f4a60e0860182610e81565b508091505092915050565b60006020820190508181036000830152610f6f8184610e90565b905092915050565b600082825260208201905092915050565b6000610f9382610dd0565b610f9d8185610f77565b9350610fad818560208601610dec565b610fb681610bcd565b840191505092915050565b60006020820190508181036000830152610fdb8184610f88565b905092915050565b610fec81610b8d565b82525050565b60006020820190506110076000830184610fe3565b92915050565b600080600080600060a0868803121561102957611028610b83565b5b600086013567ffffffffffffffff81111561104757611046610b88565b5b61105388828901610cdb565b955050602061106488828901610bae565b945050604086013567ffffffffffffffff81111561108557611084610b88565b5b61109188828901610cdb565b935050606086013567ffffffffffffffff8111156110b2576110b1610b88565b5b6110be88828901610cdb565b925050608086013567ffffffffffffffff8111156110df576110de610b88565b5b6110eb88828901610cdb565b9150509295509295909350565b7f4e487b7100000000000000000000000000000000000000000000000000000000600052602260045260246000fd5b6000600282049050600182168061113f57607f821691505b602082108103611152576111516110f8565b5b50919050565b60008190508160005260206000209050919050565b60006020601f8301049050919050565b600082821b905092915050565b6000600883026111ba7fffffffffffffffffffffffffffffffffffffffffffffffffffffffffffffffff8261117d565b6111c4868361117d565b95508019841693508086168417925050509392505050565b6000819050919050565b60006112016111fc6111f784610b8d565b6111dc565b610b8d565b9050919050565b6000819050919050565b61121b836111e6565b61122f61122782611208565b84845461118a565b825550505050565b600090565b611244611237565b61124f818484611212565b505050565b5b818110156112735761126860008261123c565b600181019050611255565b5050565b601f8211156112b85761128981611158565b6112928461116d565b810160208510156112a1578190505b6112b56112ad8561116d565b830182611254565b50505b505050565b600082821c905092915050565b60006112db600019846008026112bd565b1980831691505092915050565b60006112f483836112ca565b9150826002028217905092915050565b61130d82610dd0565b67ffffffffffffffff81111561132657611325610bde565b5b6113308254611127565b61133b828285611277565b600060209050601f83116001811461136e576000841561135c578287015190505b61136685826112e8565b8655506113ce565b601f19841661137c86611158565b60005b828110156113a45784890151825560018201915060208501945060208101905061137f565b868310156113c157848901516113bd601f8916826112ca565b8355505b6001600288020188555050505b505050505050565b7f4e487b7100000000000000000000000000000000000000000000000000000000600052601160045260246000fd5b600061141082610b8d565b91507fffffffffffffffffffffffffffffffffffffffffffffffffffffffffffffffff8203611442576114416113d6565b5b600182019050919050565b7f46696c652055706c6f6164656400000000000000000000000000000000000000600082015250565b6000611483600d83610f77565b915061148e8261144d565b602082019050919050565b6114a281610e6f565b82525050565b600060408201905081810360008301526114c181611476565b90506114d06020830184611499565b9291505056fea2646970667358221220e8b96a43bfd7f55d80022f30539db90580f6fccc744044dba2fb19fce12d73b564736f6c63430008130033",
  "immutableReferences": {},
  "source": "// SPDX-License-Identifier: MIT\npragma solidity >=0.4.22 <0.9.0;\n\ncontract OurStorageDapp {\n    string public contractName = \"Our Decentralized Storage (ODS)\";\n\n    mapping(address => uint256) internal totalFilesOf;\n\n    mapping(address => mapping(uint256 => File)) internal fileOf;\n\n    struct File {\n        uint256 fileId;\n        string fileHash;\n        uint256 fileSize;\n        string fileType;\n        string fileName;\n        string fileDes;\n        uint256 uploadTime;\n        address uploader;\n    }\n\n    event FileUploadedEvent(string action, address uploader);\n\n    function getTotalFileCount() public view returns (uint256) {\n        return totalFilesOf[msg.sender];\n    }\n\n    function getFileOf(uint256 _fileId) public view returns (File memory) {\n        return fileOf[msg.sender][_fileId];\n    }\n\n\n        //start =>  upload- delete-edit \n    function uploadFile(\n        string memory _fileHash,\n        uint256 _fileSize,\n        string memory _fileType,\n        string memory _fileName,\n        string memory _fileDescription\n    ) public {\n        require(\n            bytes(_fileHash).length > 0 &&\n                bytes(_fileType).length > 0 &&\n                bytes(_fileDescription).length > 0 &&\n                bytes(_fileName).length > 0 &&\n                msg.sender != address(0) &&\n                _fileSize > 0\n        );\n\n        totalFilesOf[msg.sender]++;\n\n        fileOf[msg.sender][totalFilesOf[msg.sender]] = File(\n            totalFilesOf[msg.sender],\n            _fileHash,\n            _fileSize,\n            _fileType,\n            _fileName,\n            _fileDescription,\n            block.timestamp,\n            msg.sender\n        );\n\n        emit FileUploadedEvent(\"File Uploaded\", msg.sender);\n    }\n\n    function deleteFile(uint256 _id) public {\n        fileOf[msg.sender][_id].fileName = \"0deleted_\";\n    }\n\n    function deleteFileForever(uint256 _id) public {\n        fileOf[msg.sender][_id].fileHash = \"\";\n        fileOf[msg.sender][_id].fileName = \"0deleted_forever_\";\n        fileOf[msg.sender][_id].fileDes = \"\";\n    }\n\n    function editFileDeatils(\n        uint256 _id,\n        string memory _name,\n        string memory _des\n    ) public {\n        fileOf[msg.sender][_id].fileName = _name;\n        fileOf[msg.sender][_id].fileDes = _des;\n    }\n        //end =>  upload- delete-edit \n\n}\n",
  "sourcePath": "E:\\CPSCF559_Final Project\\src\\contracts\\OurStorageDapp.sol",
  "compiler": {
    "name": "solc",
    "version": "0.8.19+commit.7dd6d404.Emscripten.clang"
  },
  "schemaVersion": "3.4.13",
  "updatedAt": "2023-05-03T22:45:42.240Z",
  "networkType": "ethereum",
  "devdoc": {
    "kind": "dev",
    "methods": {},
    "version": 1
  },
  "userdoc": {
    "kind": "user",
    "methods": {},
    "version": 1
  }
}