{
  "contractName": "OurStorageDapp",
  "abi": [
    {
      "anonymous": false,
      "inputs": [
        {
          "indexed": false,
          "internalType": "string",
          "name": "action",
          "type": "string"
        },
        {
          "indexed": false,
          "internalType": "address",
          "name": "uploader",
          "type": "address"
        }
      ],
      "name": "FileUploadedEvent",
      "type": "event"
    },
    {
      "inputs": [],
      "name": "contractName",
      "outputs": [
        {
          "internalType": "string",
          "name": "",
          "type": "string"
        }
      ],
      "stateMutability": "view",
      "type": "function",
      "constant": true
    },
    {
      "inputs": [],
      "name": "getTotalFileCount",
      "outputs": [
        {
          "internalType": "uint256",
          "name": "",
          "type": "uint256"
        }
      ],
      "stateMutability": "view",
      "type": "function",
      "constant": true
    },
    {
      "inputs": [
        {
          "internalType": "uint256",
          "name": "_fileId",
          "type": "uint256"
        }
      ],
      "name": "getFileOf",
      "outputs": [
        {
          "components": [
            {
              "internalType": "uint256",
              "name": "fileId",
              "type": "uint256"
            },
            {
              "internalType": "string",
              "name": "fileHash",
              "type": "string"
            },
            {
              "internalType": "uint256",
              "name": "fileSize",
              "type": "uint256"
            },
            {
              "internalType": "string",
              "name": "fileType",
              "type": "string"
            },
            {
              "internalType": "string",
              "name": "fileName",
              "type": "string"
            },
            {
              "internalType": "string",
              "name": "fileDes",
              "type": "string"
            },
            {
              "internalType": "uint256",
              "name": "uploadTime",
              "type": "uint256"
            },
            {
              "internalType": "address",
              "name": "uploader",
              "type": "address"
            }
          ],
          "internalType": "struct OurStorageDapp.File",
          "name": "",
          "type": "tuple"
        }
      ],
      "stateMutability": "view",
      "type": "function",
      "constant": true
    },
    {
      "inputs": [
        {
          "internalType": "string",
          "name": "_fileHash",
          "type": "string"
        },
        {
          "internalType": "uint256",
          "name": "_fileSize",
          "type": "uint256"
        },
        {
          "internalType": "string",
          "name": "_fileType",
          "type": "string"
        },
        {
          "internalType": "string",
          "name": "_fileName",
          "type": "string"
        },
        {
          "internalType": "string",
          "name": "_fileDescription",
          "type": "string"
        }
      ],
      "name": "uploadFile",
      "outputs": [],
      "stateMutability": "nonpayable",
      "type": "function"
    },
    {
      "inputs": [
        {
          "internalType": "uint256",
          "name": "_id",
          "type": "uint256"
        }
      ],
      "name": "deleteFile",
      "outputs": [],
      "stateMutability": "nonpayable",
      "type": "function"
    },
    {
      "inputs": [
        {
          "internalType": "uint256",
          "name": "_id",
          "type": "uint256"
        }
      ],
      "name": "deleteFileForever",
      "outputs": [],
      "stateMutability": "nonpayable",
      "type": "function"
    },
    {
      "inputs": [
        {
          "internalType": "uint256",
          "name": "_id",
          "type": "uint256"
        },
        {
          "internalType": "string",
          "name": "_fileHash",
          "type": "string"
        }
      ],
      "name": "downloadFile",
      "outputs": [],
      "stateMutability": "nonpayable",
      "type": "function"
    },
    {
      "inputs": [
        {
          "internalType": "uint256",
          "name": "_id",
          "type": "uint256"
        },
        {
          "internalType": "string",
          "name": "_name",
          "type": "string"
        },
        {
          "internalType": "string",
          "name": "_des",
          "type": "string"
        }
      ],
      "name": "editFileDeatils",
      "outputs": [],
      "stateMutability": "nonpayable",
      "type": "function"
    }
  ],
  "bytecode": "0x60806040526040518060400160405280601f81526020017f4f757220446563656e7472616c697a65642053746f7261676520284f44532900815250600090816200004a9190620002d9565b503480156200005857600080fd5b50620003c0565b600081519050919050565b7f4e487b7100000000000000000000000000000000000000000000000000000000600052604160045260246000fd5b7f4e487b7100000000000000000000000000000000000000000000000000000000600052602260045260246000fd5b60006002820490506001821680620000e157607f821691505b602082108103620000f757620000f662000099565b5b50919050565b60008190508160005260206000209050919050565b60006020601f8301049050919050565b600082821b905092915050565b600060088302620001617fffffffffffffffffffffffffffffffffffffffffffffffffffffffffffffffff8262000122565b6200016d868362000122565b95508019841693508086168417925050509392505050565b6000819050919050565b6000819050919050565b6000620001ba620001b4620001ae8462000185565b6200018f565b62000185565b9050919050565b6000819050919050565b620001d68362000199565b620001ee620001e582620001c1565b8484546200012f565b825550505050565b600090565b62000205620001f6565b62000212818484620001cb565b505050565b5b818110156200023a576200022e600082620001fb565b60018101905062000218565b5050565b601f82111562000289576200025381620000fd565b6200025e8462000112565b810160208510156200026e578190505b620002866200027d8562000112565b83018262000217565b50505b505050565b600082821c905092915050565b6000620002ae600019846008026200028e565b1980831691505092915050565b6000620002c983836200029b565b9150826002028217905092915050565b620002e4826200005f565b67ffffffffffffffff8111156200030057620002ff6200006a565b5b6200030c8254620000c8565b620003198282856200023e565b600060209050601f8311600181146200035157600084156200033c578287015190505b620003488582620002bb565b865550620003b8565b601f1984166200036186620000fd565b60005b828110156200038b5784890151825560018201915060208501945060208101905062000364565b86831015620003ab5784890151620003a7601f8916826200029b565b8355505b6001600288020188555050505b505050505050565b6115f480620003d06000396000f3fe608060405234801561001057600080fd5b50600436106100885760003560e01c8063c5b420061161005b578063c5b4200614610115578063cd58afc114610131578063dd986f161461014d578063e82d9d331461016957610088565b80632b8b3c8f1461008d5780634495e216146100a957806375d0c0dc146100d9578063c46e2092146100f7575b600080fd5b6100a760048036038101906100a29190610d95565b610185565b005b6100c360048036038101906100be9190610e20565b61024c565b6040516100d09190610fe1565b60405180910390f35b6100e1610573565b6040516100ee919061104d565b60405180910390f35b6100ff610601565b60405161010c919061107e565b60405180910390f35b61012f600480360381019061012a9190610e20565b610648565b005b61014b60048036038101906101469190611099565b6106e1565b005b61016760048036038101906101629190610e20565b610746565b005b610183600480360381019061017e91906110f5565b6108bf565b005b81600260003373ffffffffffffffffffffffffffffffffffffffff1673ffffffffffffffffffffffffffffffffffffffff168152602001908152602001600020600085815260200190815260200160002060040190816101e591906113ec565b5080600260003373ffffffffffffffffffffffffffffffffffffffff1673ffffffffffffffffffffffffffffffffffffffff1681526020019081526020016000206000858152602001908152602001600020600501908161024691906113ec565b50505050565b610254610baa565b600260003373ffffffffffffffffffffffffffffffffffffffff1673ffffffffffffffffffffffffffffffffffffffff168152602001908152602001600020600083815260200190815260200160002060405180610100016040529081600082015481526020016001820180546102ca9061120f565b80601f01602080910402602001604051908101604052809291908181526020018280546102f69061120f565b80156103435780601f1061031857610100808354040283529160200191610343565b820191906000526020600020905b81548152906001019060200180831161032657829003601f168201915b50505050508152602001600282015481526020016003820180546103669061120f565b80601f01602080910402602001604051908101604052809291908181526020018280546103929061120f565b80156103df5780601f106103b4576101008083540402835291602001916103df565b820191906000526020600020905b8154815290600101906020018083116103c257829003601f168201915b505050505081526020016004820180546103f89061120f565b80601f01602080910402602001604051908101604052809291908181526020018280546104249061120f565b80156104715780601f1061044657610100808354040283529160200191610471565b820191906000526020600020905b81548152906001019060200180831161045457829003601f168201915b5050505050815260200160058201805461048a9061120f565b80601f01602080910402602001604051908101604052809291908181526020018280546104b69061120f565b80156105035780601f106104d857610100808354040283529160200191610503565b820191906000526020600020905b8154815290600101906020018083116104e657829003601f168201915b50505050508152602001600682015481526020016007820160009054906101000a900473ffffffffffffffffffffffffffffffffffffffff1673ffffffffffffffffffffffffffffffffffffffff1673ffffffffffffffffffffffffffffffffffffffff16815250509050919050565b600080546105809061120f565b80601f01602080910402602001604051908101604052809291908181526020018280546105ac9061120f565b80156105f95780601f106105ce576101008083540402835291602001916105f9565b820191906000526020600020905b8154815290600101906020018083116105dc57829003601f168201915b505050505081565b6000600160003373ffffffffffffffffffffffffffffffffffffffff1673ffffffffffffffffffffffffffffffffffffffff16815260200190815260200160002054905090565b6040518060400160405280600981526020017f3064656c657465645f0000000000000000000000000000000000000000000000815250600260003373ffffffffffffffffffffffffffffffffffffffff1673ffffffffffffffffffffffffffffffffffffffff168152602001908152602001600020600083815260200190815260200160002060040190816106dd91906113ec565b5050565b80600260003373ffffffffffffffffffffffffffffffffffffffff1673ffffffffffffffffffffffffffffffffffffffff1681526020019081526020016000206000848152602001908152602001600020600101908161074191906113ec565b505050565b60405180602001604052806000815250600260003373ffffffffffffffffffffffffffffffffffffffff1673ffffffffffffffffffffffffffffffffffffffff168152602001908152602001600020600083815260200190815260200160002060010190816107b591906113ec565b506040518060400160405280601181526020017f3064656c657465645f666f72657665725f000000000000000000000000000000815250600260003373ffffffffffffffffffffffffffffffffffffffff1673ffffffffffffffffffffffffffffffffffffffff1681526020019081526020016000206000838152602001908152602001600020600401908161084b91906113ec565b5060405180602001604052806000815250600260003373ffffffffffffffffffffffffffffffffffffffff1673ffffffffffffffffffffffffffffffffffffffff168152602001908152602001600020600083815260200190815260200160002060050190816108bb91906113ec565b5050565b600085511180156108d1575060008351115b80156108de575060008151115b80156108eb575060008251115b80156109245750600073ffffffffffffffffffffffffffffffffffffffff163373ffffffffffffffffffffffffffffffffffffffff1614155b80156109305750600084115b61093957600080fd5b600160003373ffffffffffffffffffffffffffffffffffffffff1673ffffffffffffffffffffffffffffffffffffffff1681526020019081526020016000206000815480929190610989906114ed565b9190505550604051806101000160405280600160003373ffffffffffffffffffffffffffffffffffffffff1673ffffffffffffffffffffffffffffffffffffffff1681526020019081526020016000205481526020018681526020018581526020018481526020018381526020018281526020014281526020013373ffffffffffffffffffffffffffffffffffffffff16815250600260003373ffffffffffffffffffffffffffffffffffffffff1673ffffffffffffffffffffffffffffffffffffffff1681526020019081526020016000206000600160003373ffffffffffffffffffffffffffffffffffffffff1673ffffffffffffffffffffffffffffffffffffffff168152602001908152602001600020548152602001908152602001600020600082015181600001556020820151816001019081610acb91906113ec565b50604082015181600201556060820151816003019081610aeb91906113ec565b506080820151816004019081610b0191906113ec565b5060a0820151816005019081610b1791906113ec565b5060c0820151816006015560e08201518160070160006101000a81548173ffffffffffffffffffffffffffffffffffffffff021916908373ffffffffffffffffffffffffffffffffffffffff1602179055509050507f09b4a9d4e432544073816c687a5a6d6e5c8ef151a3cc55eabab7de7ca2ecdc4533604051610b9b9190611590565b60405180910390a15050505050565b60405180610100016040528060008152602001606081526020016000815260200160608152602001606081526020016060815260200160008152602001600073ffffffffffffffffffffffffffffffffffffffff1681525090565b6000604051905090565b600080fd5b600080fd5b6000819050919050565b610c2c81610c19565b8114610c3757600080fd5b50565b600081359050610c4981610c23565b92915050565b600080fd5b600080fd5b6000601f19601f8301169050919050565b7f4e487b7100000000000000000000000000000000000000000000000000000000600052604160045260246000fd5b610ca282610c59565b810181811067ffffffffffffffff82111715610cc157610cc0610c6a565b5b80604052505050565b6000610cd4610c05565b9050610ce08282610c99565b919050565b600067ffffffffffffffff821115610d0057610cff610c6a565b5b610d0982610c59565b9050602081019050919050565b82818337600083830152505050565b6000610d38610d3384610ce5565b610cca565b905082815260208101848484011115610d5457610d53610c54565b5b610d5f848285610d16565b509392505050565b600082601f830112610d7c57610d7b610c4f565b5b8135610d8c848260208601610d25565b91505092915050565b600080600060608486031215610dae57610dad610c0f565b5b6000610dbc86828701610c3a565b935050602084013567ffffffffffffffff811115610ddd57610ddc610c14565b5b610de986828701610d67565b925050604084013567ffffffffffffffff811115610e0a57610e09610c14565b5b610e1686828701610d67565b9150509250925092565b600060208284031215610e3657610e35610c0f565b5b6000610e4484828501610c3a565b91505092915050565b610e5681610c19565b82525050565b600081519050919050565b600082825260208201905092915050565b60005b83811015610e96578082015181840152602081019050610e7b565b60008484015250505050565b6000610ead82610e5c565b610eb78185610e67565b9350610ec7818560208601610e78565b610ed081610c59565b840191505092915050565b600073ffffffffffffffffffffffffffffffffffffffff82169050919050565b6000610f0682610edb565b9050919050565b610f1681610efb565b82525050565b600061010083016000830151610f356000860182610e4d565b5060208301518482036020860152610f4d8282610ea2565b9150506040830151610f626040860182610e4d565b5060608301518482036060860152610f7a8282610ea2565b91505060808301518482036080860152610f948282610ea2565b91505060a083015184820360a0860152610fae8282610ea2565b91505060c0830151610fc360c0860182610e4d565b5060e0830151610fd660e0860182610f0d565b508091505092915050565b60006020820190508181036000830152610ffb8184610f1c565b905092915050565b600082825260208201905092915050565b600061101f82610e5c565b6110298185611003565b9350611039818560208601610e78565b61104281610c59565b840191505092915050565b600060208201905081810360008301526110678184611014565b905092915050565b61107881610c19565b82525050565b6000602082019050611093600083018461106f565b92915050565b600080604083850312156110b0576110af610c0f565b5b60006110be85828601610c3a565b925050602083013567ffffffffffffffff8111156110df576110de610c14565b5b6110eb85828601610d67565b9150509250929050565b600080600080600060a0868803121561111157611110610c0f565b5b600086013567ffffffffffffffff81111561112f5761112e610c14565b5b61113b88828901610d67565b955050602061114c88828901610c3a565b945050604086013567ffffffffffffffff81111561116d5761116c610c14565b5b61117988828901610d67565b935050606086013567ffffffffffffffff81111561119a57611199610c14565b5b6111a688828901610d67565b925050608086013567ffffffffffffffff8111156111c7576111c6610c14565b5b6111d388828901610d67565b9150509295509295909350565b7f4e487b7100000000000000000000000000000000000000000000000000000000600052602260045260246000fd5b6000600282049050600182168061122757607f821691505b60208210810361123a576112396111e0565b5b50919050565b60008190508160005260206000209050919050565b60006020601f8301049050919050565b600082821b905092915050565b6000600883026112a27fffffffffffffffffffffffffffffffffffffffffffffffffffffffffffffffff82611265565b6112ac8683611265565b95508019841693508086168417925050509392505050565b6000819050919050565b60006112e96112e46112df84610c19565b6112c4565b610c19565b9050919050565b6000819050919050565b611303836112ce565b61131761130f826112f0565b848454611272565b825550505050565b600090565b61132c61131f565b6113378184846112fa565b505050565b5b8181101561135b57611350600082611324565b60018101905061133d565b5050565b601f8211156113a05761137181611240565b61137a84611255565b81016020851015611389578190505b61139d61139585611255565b83018261133c565b50505b505050565b600082821c905092915050565b60006113c3600019846008026113a5565b1980831691505092915050565b60006113dc83836113b2565b9150826002028217905092915050565b6113f582610e5c565b67ffffffffffffffff81111561140e5761140d610c6a565b5b611418825461120f565b61142382828561135f565b600060209050601f8311600181146114565760008415611444578287015190505b61144e85826113d0565b8655506114b6565b601f19841661146486611240565b60005b8281101561148c57848901518255600182019150602085019450602081019050611467565b868310156114a957848901516114a5601f8916826113b2565b8355505b6001600288020188555050505b505050505050565b7f4e487b7100000000000000000000000000000000000000000000000000000000600052601160045260246000fd5b60006114f882610c19565b91507fffffffffffffffffffffffffffffffffffffffffffffffffffffffffffffffff820361152a576115296114be565b5b600182019050919050565b7f46696c652055706c6f6164656400000000000000000000000000000000000000600082015250565b600061156b600d83611003565b915061157682611535565b602082019050919050565b61158a81610efb565b82525050565b600060408201905081810360008301526115a98161155e565b90506115b86020830184611581565b9291505056fea2646970667358221220d6597b9815a6a58c9e23a79e37de14cac50705fc4a2669794258c555d73261ce64736f6c63430008130033",
  "immutableReferences": {},
  "source": "// SPDX-License-Identifier: MIT\npragma solidity >=0.4.22 <0.9.0;\n\ncontract OurStorageDapp {\n    string public contractName = \"Our Decentralized Storage (ODS)\";\n\n    mapping(address => uint256) internal totalFilesOf;\n\n    mapping(address => mapping(uint256 => File)) internal fileOf;\n\n    struct File {\n        uint256 fileId;\n        string fileHash;\n        uint256 fileSize;\n        string fileType;\n        string fileName;\n        string fileDes;\n        uint256 uploadTime;\n        address uploader;\n    }\n\n    event FileUploadedEvent(string action, address uploader);\n\n    function getTotalFileCount() public view returns (uint256) {\n        return totalFilesOf[msg.sender];\n    }\n\n    function getFileOf(uint256 _fileId) public view returns (File memory) {\n        return fileOf[msg.sender][_fileId];\n    }\n\n\n        //start =>  upload- delete-edit \n    function uploadFile(\n        string memory _fileHash,\n        uint256 _fileSize,\n        string memory _fileType,\n        string memory _fileName,\n        string memory _fileDescription\n    ) public {\n        require(\n            bytes(_fileHash).length > 0 &&\n                bytes(_fileType).length > 0 &&\n                bytes(_fileDescription).length > 0 &&\n                bytes(_fileName).length > 0 &&\n                msg.sender != address(0) &&\n                _fileSize > 0\n        );\n\n        totalFilesOf[msg.sender]++;\n\n        fileOf[msg.sender][totalFilesOf[msg.sender]] = File(\n            totalFilesOf[msg.sender],\n            _fileHash,\n            _fileSize,\n            _fileType,\n            _fileName,\n            _fileDescription,\n            block.timestamp,\n            msg.sender\n        );\n\n        emit FileUploadedEvent(\"File Uploaded\", msg.sender);\n    }\n\n    function deleteFile(uint256 _id) public {\n        fileOf[msg.sender][_id].fileName = \"0deleted_\";\n    }\n\n    function deleteFileForever(uint256 _id) public {\n        fileOf[msg.sender][_id].fileHash = \"\";\n        fileOf[msg.sender][_id].fileName = \"0deleted_forever_\";\n        fileOf[msg.sender][_id].fileDes = \"\";\n    }\nfunction downloadFile(uint256 _id, string memory _fileHash) public {\n        fileOf[msg.sender][_id].fileHash = _fileHash;\n    }\n\n    function editFileDeatils(\n        uint256 _id,\n        string memory _name,\n        string memory _des\n    ) public {\n        fileOf[msg.sender][_id].fileName = _name;\n        fileOf[msg.sender][_id].fileDes = _des;\n    }\n        //end =>  upload- delete-edit \n\n}\n",
  "sourcePath": "/Users/csuftitan/Desktop/DataDen/DataDen/src/contracts/OurStorageDapp.sol",
  "compiler": {
    "name": "solc",
    "version": "0.8.19+commit.7dd6d404.Emscripten.clang"
  },
  "schemaVersion": "3.4.11",
  "updatedAt": "2023-05-05T18:45:00.420Z",
  "networkType": "ethereum",
  "devdoc": {
    "kind": "dev",
    "methods": {},
    "version": 1
  },
  "userdoc": {
    "kind": "user",
    "methods": {},
    "version": 1
  }
}